{
  "_format": "hh-sol-artifact-1",
  "contractName": "CertificateVerifier",
  "sourceName": "contracts/CertificateVerifier.sol",
  "abi": [
    {
      "inputs": [],
      "stateMutability": "nonpayable",
      "type": "constructor"
    },
    {
      "inputs": [],
      "name": "AccessControlBadConfirmation",
      "type": "error"
    },
    {
      "inputs": [
        {
          "internalType": "address",
          "name": "account",
          "type": "address"
        },
        {
          "internalType": "bytes32",
          "name": "neededRole",
          "type": "bytes32"
        }
      ],
      "name": "AccessControlUnauthorizedAccount",
      "type": "error"
    },
    {
      "anonymous": false,
      "inputs": [
        {
          "indexed": true,
          "internalType": "string",
          "name": "certificateId",
          "type": "string"
        },
        {
          "indexed": true,
          "internalType": "uint256",
          "name": "studentId",
          "type": "uint256"
        },
        {
          "indexed": true,
          "internalType": "address",
          "name": "issuer",
          "type": "address"
        },
        {
          "indexed": false,
          "internalType": "string",
          "name": "certificateCID",
          "type": "string"
        },
        {
          "indexed": false,
          "internalType": "uint256",
          "name": "timestamp",
          "type": "uint256"
        }
      ],
      "name": "CertificateIssued",
      "type": "event"
    },
    {
      "anonymous": false,
      "inputs": [
        {
          "indexed": true,
          "internalType": "bytes32",
          "name": "role",
          "type": "bytes32"
        },
        {
          "indexed": true,
          "internalType": "bytes32",
          "name": "previousAdminRole",
          "type": "bytes32"
        },
        {
          "indexed": true,
          "internalType": "bytes32",
          "name": "newAdminRole",
          "type": "bytes32"
        }
      ],
      "name": "RoleAdminChanged",
      "type": "event"
    },
    {
      "anonymous": false,
      "inputs": [
        {
          "indexed": true,
          "internalType": "bytes32",
          "name": "role",
          "type": "bytes32"
        },
        {
          "indexed": true,
          "internalType": "address",
          "name": "account",
          "type": "address"
        },
        {
          "indexed": true,
          "internalType": "address",
          "name": "sender",
          "type": "address"
        }
      ],
      "name": "RoleGranted",
      "type": "event"
    },
    {
      "anonymous": false,
      "inputs": [
        {
          "indexed": true,
          "internalType": "bytes32",
          "name": "role",
          "type": "bytes32"
        },
        {
          "indexed": true,
          "internalType": "address",
          "name": "account",
          "type": "address"
        },
        {
          "indexed": true,
          "internalType": "address",
          "name": "sender",
          "type": "address"
        }
      ],
      "name": "RoleRevoked",
      "type": "event"
    },
    {
      "inputs": [],
      "name": "DEFAULT_ADMIN_ROLE",
      "outputs": [
        {
          "internalType": "bytes32",
          "name": "",
          "type": "bytes32"
        }
      ],
      "stateMutability": "view",
      "type": "function"
    },
    {
      "inputs": [],
      "name": "ISSUER_ROLE",
      "outputs": [
        {
          "internalType": "bytes32",
          "name": "",
          "type": "bytes32"
        }
      ],
      "stateMutability": "view",
      "type": "function"
    },
    {
      "inputs": [],
      "name": "VERIFIER_ROLE",
      "outputs": [
        {
          "internalType": "bytes32",
          "name": "",
          "type": "bytes32"
        }
      ],
      "stateMutability": "view",
      "type": "function"
    },
    {
      "inputs": [
        {
          "internalType": "string",
          "name": "",
          "type": "string"
        }
      ],
      "name": "certificateExists",
      "outputs": [
        {
          "internalType": "bool",
          "name": "",
          "type": "bool"
        }
      ],
      "stateMutability": "view",
      "type": "function"
    },
    {
      "inputs": [
        {
          "internalType": "string",
          "name": "certificateId",
          "type": "string"
        }
      ],
      "name": "getCertificate",
      "outputs": [
        {
          "internalType": "uint256",
          "name": "",
          "type": "uint256"
        },
        {
          "internalType": "string",
          "name": "",
          "type": "string"
        },
        {
          "internalType": "address",
          "name": "",
          "type": "address"
        },
        {
          "internalType": "uint256",
          "name": "",
          "type": "uint256"
        }
      ],
      "stateMutability": "view",
      "type": "function"
    },
    {
      "inputs": [
        {
          "internalType": "bytes32",
          "name": "role",
          "type": "bytes32"
        }
      ],
      "name": "getRoleAdmin",
      "outputs": [
        {
          "internalType": "bytes32",
          "name": "",
          "type": "bytes32"
        }
      ],
      "stateMutability": "view",
      "type": "function"
    },
    {
      "inputs": [
        {
          "internalType": "bytes32",
          "name": "role",
          "type": "bytes32"
        },
        {
          "internalType": "address",
          "name": "account",
          "type": "address"
        }
      ],
      "name": "grantRole",
      "outputs": [],
      "stateMutability": "nonpayable",
      "type": "function"
    },
    {
      "inputs": [
        {
          "internalType": "bytes32",
          "name": "role",
          "type": "bytes32"
        },
        {
          "internalType": "address",
          "name": "account",
          "type": "address"
        }
      ],
      "name": "hasRole",
      "outputs": [
        {
          "internalType": "bool",
          "name": "",
          "type": "bool"
        }
      ],
      "stateMutability": "view",
      "type": "function"
    },
    {
      "inputs": [
        {
          "internalType": "string",
          "name": "certificateId",
          "type": "string"
        },
        {
          "internalType": "uint256",
          "name": "studentId",
          "type": "uint256"
        },
        {
          "internalType": "string",
          "name": "certificateCID",
          "type": "string"
        }
      ],
      "name": "issueCertificate",
      "outputs": [],
      "stateMutability": "nonpayable",
      "type": "function"
    },
    {
      "inputs": [
        {
          "internalType": "bytes32",
          "name": "role",
          "type": "bytes32"
        },
        {
          "internalType": "address",
          "name": "callerConfirmation",
          "type": "address"
        }
      ],
      "name": "renounceRole",
      "outputs": [],
      "stateMutability": "nonpayable",
      "type": "function"
    },
    {
      "inputs": [
        {
          "internalType": "bytes32",
          "name": "role",
          "type": "bytes32"
        },
        {
          "internalType": "address",
          "name": "account",
          "type": "address"
        }
      ],
      "name": "revokeRole",
      "outputs": [],
      "stateMutability": "nonpayable",
      "type": "function"
    },
    {
      "inputs": [
        {
          "internalType": "bytes4",
          "name": "interfaceId",
          "type": "bytes4"
        }
      ],
      "name": "supportsInterface",
      "outputs": [
        {
          "internalType": "bool",
          "name": "",
          "type": "bool"
        }
      ],
      "stateMutability": "view",
      "type": "function"
    }
  ],
  "bytecode": "0x60806040523480156200001157600080fd5b50620000276000801b336200006160201b60201c565b506200005a7f114e74f6ea3bd819998f78687bfcb11b140da08e9b7d222fa9c1f1ba1f2aa122336200006160201b60201c565b50620001d6565b60006200007583836200016460201b60201c565b6200015957600160008085815260200190815260200160002060000160008473ffffffffffffffffffffffffffffffffffffffff1673ffffffffffffffffffffffffffffffffffffffff16815260200190815260200160002060006101000a81548160ff021916908315150217905550620000f5620001ce60201b60201c565b73ffffffffffffffffffffffffffffffffffffffff168273ffffffffffffffffffffffffffffffffffffffff16847f2f8788117e7eff1d82e926ec794901d17c78024a50270940304540a733656f0d60405160405180910390a4600190506200015e565b600090505b92915050565b600080600084815260200190815260200160002060000160008373ffffffffffffffffffffffffffffffffffffffff1673ffffffffffffffffffffffffffffffffffffffff16815260200190815260200160002060009054906101000a900460ff16905092915050565b600033905090565b61150480620001e66000396000f3fe608060405234801561001057600080fd5b50600436106100b45760003560e01c806382aefa241161007157806382aefa241461019d57806391d14854146101bb578063a217fddf146101eb578063d547741f14610209578063e7705db614610225578063ed0f2e7514610243576100b4565b806301ffc9a7146100b95780630655f037146100e9578063155fd5e614610119578063248a9ca3146101355780632f2ff15d1461016557806336568abe14610181575b600080fd5b6100d360048036038101906100ce9190610ba5565b610276565b6040516100e09190610bed565b60405180910390f35b61010360048036038101906100fe9190610d4e565b6102f0565b6040516101109190610bed565b60405180910390f35b610133600480360381019061012e9190610dcd565b610326565b005b61014f600480360381019061014a9190610e8e565b610529565b60405161015c9190610eca565b60405180910390f35b61017f600480360381019061017a9190610f43565b610548565b005b61019b60048036038101906101969190610f43565b61056a565b005b6101a56105e5565b6040516101b29190610eca565b60405180910390f35b6101d560048036038101906101d09190610f43565b610609565b6040516101e29190610bed565b60405180910390f35b6101f3610673565b6040516102009190610eca565b60405180910390f35b610223600480360381019061021e9190610f43565b61067a565b005b61022d61069c565b60405161023a9190610eca565b60405180910390f35b61025d60048036038101906102589190610d4e565b6106c0565b60405161026d9493929190611020565b60405180910390f35b60007f7965db0b000000000000000000000000000000000000000000000000000000007bffffffffffffffffffffffffffffffffffffffffffffffffffffffff1916827bffffffffffffffffffffffffffffffffffffffffffffffffffffffff191614806102e957506102e88261087f565b5b9050919050565b6002818051602081018201805184825260208301602085012081835280955050505050506000915054906101000a900460ff1681565b7f114e74f6ea3bd819998f78687bfcb11b140da08e9b7d222fa9c1f1ba1f2aa122610350816108e9565b60028460405161036091906110a8565b908152602001604051809103902060009054906101000a900460ff16156103bc576040517f08c379a00000000000000000000000000000000000000000000000000000000081526004016103b39061110b565b60405180910390fd5b60405180608001604052808481526020018381526020013373ffffffffffffffffffffffffffffffffffffffff1681526020014281525060018560405161040391906110a8565b90815260200160405180910390206000820151816000015560208201518160010190816104309190611337565b5060408201518160020160006101000a81548173ffffffffffffffffffffffffffffffffffffffff021916908373ffffffffffffffffffffffffffffffffffffffff16021790555060608201518160030155905050600160028560405161049791906110a8565b908152602001604051809103902060006101000a81548160ff0219169083151502179055503373ffffffffffffffffffffffffffffffffffffffff1683856040516104e291906110a8565b60405180910390207ffb7e742724db3d47f36fb91a4ecf249a44724e4150372a755b7e93b4f059c2f6854260405161051b929190611409565b60405180910390a450505050565b6000806000838152602001908152602001600020600101549050919050565b61055182610529565b61055a816108e9565b61056483836108fd565b50505050565b6105726109ee565b73ffffffffffffffffffffffffffffffffffffffff168173ffffffffffffffffffffffffffffffffffffffff16146105d6576040517f6697b23200000000000000000000000000000000000000000000000000000000815260040160405180910390fd5b6105e082826109f6565b505050565b7f114e74f6ea3bd819998f78687bfcb11b140da08e9b7d222fa9c1f1ba1f2aa12281565b600080600084815260200190815260200160002060000160008373ffffffffffffffffffffffffffffffffffffffff1673ffffffffffffffffffffffffffffffffffffffff16815260200190815260200160002060009054906101000a900460ff16905092915050565b6000801b81565b61068382610529565b61068c816108e9565b61069683836109f6565b50505050565b7f0ce23c3e399818cfee81a7ab0880f714e53d7672b08df0fa62f2843416e1ea0981565b600060606000806002856040516106d791906110a8565b908152602001604051809103902060009054906101000a900460ff16610732576040517f08c379a000000000000000000000000000000000000000000000000000000000815260040161072990611485565b60405180910390fd5b600060018660405161074491906110a8565b9081526020016040518091039020604051806080016040529081600082015481526020016001820180546107779061115a565b80601f01602080910402602001604051908101604052809291908181526020018280546107a39061115a565b80156107f05780601f106107c5576101008083540402835291602001916107f0565b820191906000526020600020905b8154815290600101906020018083116107d357829003601f168201915b505050505081526020016002820160009054906101000a900473ffffffffffffffffffffffffffffffffffffffff1673ffffffffffffffffffffffffffffffffffffffff1673ffffffffffffffffffffffffffffffffffffffff168152602001600382015481525050905080600001518160200151826040015183606001519450945094509450509193509193565b60007f01ffc9a7000000000000000000000000000000000000000000000000000000007bffffffffffffffffffffffffffffffffffffffffffffffffffffffff1916827bffffffffffffffffffffffffffffffffffffffffffffffffffffffff1916149050919050565b6108fa816108f56109ee565b610ae8565b50565b60006109098383610609565b6109e357600160008085815260200190815260200160002060000160008473ffffffffffffffffffffffffffffffffffffffff1673ffffffffffffffffffffffffffffffffffffffff16815260200190815260200160002060006101000a81548160ff0219169083151502179055506109806109ee565b73ffffffffffffffffffffffffffffffffffffffff168273ffffffffffffffffffffffffffffffffffffffff16847f2f8788117e7eff1d82e926ec794901d17c78024a50270940304540a733656f0d60405160405180910390a4600190506109e8565b600090505b92915050565b600033905090565b6000610a028383610609565b15610add57600080600085815260200190815260200160002060000160008473ffffffffffffffffffffffffffffffffffffffff1673ffffffffffffffffffffffffffffffffffffffff16815260200190815260200160002060006101000a81548160ff021916908315150217905550610a7a6109ee565b73ffffffffffffffffffffffffffffffffffffffff168273ffffffffffffffffffffffffffffffffffffffff16847ff6391f5c32d9c69d2a47ea670b442974b53935d1edc7fd64eb21e047a839171b60405160405180910390a460019050610ae2565b600090505b92915050565b610af28282610609565b610b355780826040517fe2517d3f000000000000000000000000000000000000000000000000000000008152600401610b2c9291906114a5565b60405180910390fd5b5050565b6000604051905090565b600080fd5b600080fd5b60007fffffffff0000000000000000000000000000000000000000000000000000000082169050919050565b610b8281610b4d565b8114610b8d57600080fd5b50565b600081359050610b9f81610b79565b92915050565b600060208284031215610bbb57610bba610b43565b5b6000610bc984828501610b90565b91505092915050565b60008115159050919050565b610be781610bd2565b82525050565b6000602082019050610c026000830184610bde565b92915050565b600080fd5b600080fd5b6000601f19601f8301169050919050565b7f4e487b7100000000000000000000000000000000000000000000000000000000600052604160045260246000fd5b610c5b82610c12565b810181811067ffffffffffffffff82111715610c7a57610c79610c23565b5b80604052505050565b6000610c8d610b39565b9050610c998282610c52565b919050565b600067ffffffffffffffff821115610cb957610cb8610c23565b5b610cc282610c12565b9050602081019050919050565b82818337600083830152505050565b6000610cf1610cec84610c9e565b610c83565b905082815260208101848484011115610d0d57610d0c610c0d565b5b610d18848285610ccf565b509392505050565b600082601f830112610d3557610d34610c08565b5b8135610d45848260208601610cde565b91505092915050565b600060208284031215610d6457610d63610b43565b5b600082013567ffffffffffffffff811115610d8257610d81610b48565b5b610d8e84828501610d20565b91505092915050565b6000819050919050565b610daa81610d97565b8114610db557600080fd5b50565b600081359050610dc781610da1565b92915050565b600080600060608486031215610de657610de5610b43565b5b600084013567ffffffffffffffff811115610e0457610e03610b48565b5b610e1086828701610d20565b9350506020610e2186828701610db8565b925050604084013567ffffffffffffffff811115610e4257610e41610b48565b5b610e4e86828701610d20565b9150509250925092565b6000819050919050565b610e6b81610e58565b8114610e7657600080fd5b50565b600081359050610e8881610e62565b92915050565b600060208284031215610ea457610ea3610b43565b5b6000610eb284828501610e79565b91505092915050565b610ec481610e58565b82525050565b6000602082019050610edf6000830184610ebb565b92915050565b600073ffffffffffffffffffffffffffffffffffffffff82169050919050565b6000610f1082610ee5565b9050919050565b610f2081610f05565b8114610f2b57600080fd5b50565b600081359050610f3d81610f17565b92915050565b60008060408385031215610f5a57610f59610b43565b5b6000610f6885828601610e79565b9250506020610f7985828601610f2e565b9150509250929050565b610f8c81610d97565b82525050565b600081519050919050565b600082825260208201905092915050565b60005b83811015610fcc578082015181840152602081019050610fb1565b60008484015250505050565b6000610fe382610f92565b610fed8185610f9d565b9350610ffd818560208601610fae565b61100681610c12565b840191505092915050565b61101a81610f05565b82525050565b60006080820190506110356000830187610f83565b81810360208301526110478186610fd8565b90506110566040830185611011565b6110636060830184610f83565b95945050505050565b600081905092915050565b600061108282610f92565b61108c818561106c565b935061109c818560208601610fae565b80840191505092915050565b60006110b48284611077565b915081905092915050565b7f436572746966696361746520616c7265616479206973737565642e0000000000600082015250565b60006110f5601b83610f9d565b9150611100826110bf565b602082019050919050565b60006020820190508181036000830152611124816110e8565b9050919050565b7f4e487b7100000000000000000000000000000000000000000000000000000000600052602260045260246000fd5b6000600282049050600182168061117257607f821691505b6020821081036111855761118461112b565b5b50919050565b60008190508160005260206000209050919050565b60006020601f8301049050919050565b600082821b905092915050565b6000600883026111ed7fffffffffffffffffffffffffffffffffffffffffffffffffffffffffffffffff826111b0565b6111f786836111b0565b95508019841693508086168417925050509392505050565b6000819050919050565b600061123461122f61122a84610d97565b61120f565b610d97565b9050919050565b6000819050919050565b61124e83611219565b61126261125a8261123b565b8484546111bd565b825550505050565b600090565b61127761126a565b611282818484611245565b505050565b5b818110156112a65761129b60008261126f565b600181019050611288565b5050565b601f8211156112eb576112bc8161118b565b6112c5846111a0565b810160208510156112d4578190505b6112e86112e0856111a0565b830182611287565b50505b505050565b600082821c905092915050565b600061130e600019846008026112f0565b1980831691505092915050565b600061132783836112fd565b9150826002028217905092915050565b61134082610f92565b67ffffffffffffffff81111561135957611358610c23565b5b611363825461115a565b61136e8282856112aa565b600060209050601f8311600181146113a1576000841561138f578287015190505b611399858261131b565b865550611401565b601f1984166113af8661118b565b60005b828110156113d7578489015182556001820191506020850194506020810190506113b2565b868310156113f457848901516113f0601f8916826112fd565b8355505b6001600288020188555050505b505050505050565b600060408201905081810360008301526114238185610fd8565b90506114326020830184610f83565b9392505050565b7f4365727469666963617465206e6f7420666f756e642e00000000000000000000600082015250565b600061146f601683610f9d565b915061147a82611439565b602082019050919050565b6000602082019050818103600083015261149e81611462565b9050919050565b60006040820190506114ba6000830185611011565b6114c76020830184610ebb565b939250505056fea2646970667358221220c43f0263487b10bc1b62b68534bd763f933ed98eb75dc8bfa20a3c07c0d1bb3c64736f6c63430008140033",
  "linkReferences": {},
  "deployedLinkReferences": {}
}